{
  "address": "0xe2a45bBDda2902eA330e45467a1b3030747d0afc",
  "abi": [
    {
      "inputs": [],
      "stateMutability": "nonpayable",
      "type": "constructor"
    },
    {
      "inputs": [
        {
          "internalType": "address",
          "name": "sender",
          "type": "address"
        },
        {
          "internalType": "uint256",
          "name": "tokenId",
          "type": "uint256"
        },
        {
          "internalType": "address",
          "name": "owner",
          "type": "address"
        }
      ],
      "name": "ERC721IncorrectOwner",
      "type": "error"
    },
    {
      "inputs": [
        {
          "internalType": "address",
          "name": "operator",
          "type": "address"
        },
        {
          "internalType": "uint256",
          "name": "tokenId",
          "type": "uint256"
        }
      ],
      "name": "ERC721InsufficientApproval",
      "type": "error"
    },
    {
      "inputs": [
        {
          "internalType": "address",
          "name": "approver",
          "type": "address"
        }
      ],
      "name": "ERC721InvalidApprover",
      "type": "error"
    },
    {
      "inputs": [
        {
          "internalType": "address",
          "name": "operator",
          "type": "address"
        }
      ],
      "name": "ERC721InvalidOperator",
      "type": "error"
    },
    {
      "inputs": [
        {
          "internalType": "address",
          "name": "owner",
          "type": "address"
        }
      ],
      "name": "ERC721InvalidOwner",
      "type": "error"
    },
    {
      "inputs": [
        {
          "internalType": "address",
          "name": "receiver",
          "type": "address"
        }
      ],
      "name": "ERC721InvalidReceiver",
      "type": "error"
    },
    {
      "inputs": [
        {
          "internalType": "address",
          "name": "sender",
          "type": "address"
        }
      ],
      "name": "ERC721InvalidSender",
      "type": "error"
    },
    {
      "inputs": [
        {
          "internalType": "uint256",
          "name": "tokenId",
          "type": "uint256"
        }
      ],
      "name": "ERC721NonexistentToken",
      "type": "error"
    },
    {
      "inputs": [
        {
          "internalType": "address",
          "name": "owner",
          "type": "address"
        }
      ],
      "name": "OwnableInvalidOwner",
      "type": "error"
    },
    {
      "inputs": [
        {
          "internalType": "address",
          "name": "account",
          "type": "address"
        }
      ],
      "name": "OwnableUnauthorizedAccount",
      "type": "error"
    },
    {
      "anonymous": false,
      "inputs": [
        {
          "indexed": true,
          "internalType": "address",
          "name": "owner",
          "type": "address"
        },
        {
          "indexed": true,
          "internalType": "address",
          "name": "approved",
          "type": "address"
        },
        {
          "indexed": true,
          "internalType": "uint256",
          "name": "tokenId",
          "type": "uint256"
        }
      ],
      "name": "Approval",
      "type": "event"
    },
    {
      "anonymous": false,
      "inputs": [
        {
          "indexed": true,
          "internalType": "address",
          "name": "owner",
          "type": "address"
        },
        {
          "indexed": true,
          "internalType": "address",
          "name": "operator",
          "type": "address"
        },
        {
          "indexed": false,
          "internalType": "bool",
          "name": "approved",
          "type": "bool"
        }
      ],
      "name": "ApprovalForAll",
      "type": "event"
    },
    {
      "anonymous": false,
      "inputs": [
        {
          "indexed": true,
          "internalType": "address",
          "name": "previousOwner",
          "type": "address"
        },
        {
          "indexed": true,
          "internalType": "address",
          "name": "newOwner",
          "type": "address"
        }
      ],
      "name": "OwnershipTransferred",
      "type": "event"
    },
    {
      "anonymous": false,
      "inputs": [
        {
          "indexed": false,
          "internalType": "uint256",
          "name": "tokenId",
          "type": "uint256"
        },
        {
          "indexed": false,
          "internalType": "address",
          "name": "user",
          "type": "address"
        },
        {
          "indexed": false,
          "internalType": "string",
          "name": "speciesName",
          "type": "string"
        },
        {
          "indexed": false,
          "internalType": "string",
          "name": "region",
          "type": "string"
        },
        {
          "indexed": false,
          "internalType": "uint256",
          "name": "timestamp",
          "type": "uint256"
        }
      ],
      "name": "PlantRegistered",
      "type": "event"
    },
    {
      "anonymous": false,
      "inputs": [
        {
          "indexed": false,
          "internalType": "uint256",
          "name": "submissionId",
          "type": "uint256"
        },
        {
          "indexed": false,
          "internalType": "address",
          "name": "user",
          "type": "address"
        },
        {
          "indexed": false,
          "internalType": "string",
          "name": "speciesName",
          "type": "string"
        },
        {
          "indexed": false,
          "internalType": "string",
          "name": "region",
          "type": "string"
        },
        {
          "indexed": false,
          "internalType": "uint256",
          "name": "timestamp",
          "type": "uint256"
        }
      ],
      "name": "PlantSubmitted",
      "type": "event"
    },
    {
      "anonymous": false,
      "inputs": [
        {
          "indexed": false,
          "internalType": "uint256",
          "name": "tokenId",
          "type": "uint256"
        },
        {
          "indexed": false,
          "internalType": "address",
          "name": "user",
          "type": "address"
        }
      ],
      "name": "TokenClaimed",
      "type": "event"
    },
    {
      "anonymous": false,
      "inputs": [
        {
          "indexed": true,
          "internalType": "address",
          "name": "from",
          "type": "address"
        },
        {
          "indexed": true,
          "internalType": "address",
          "name": "to",
          "type": "address"
        },
        {
          "indexed": true,
          "internalType": "uint256",
          "name": "tokenId",
          "type": "uint256"
        }
      ],
      "name": "Transfer",
      "type": "event"
    },
    {
      "inputs": [
        {
          "internalType": "address",
          "name": "to",
          "type": "address"
        },
        {
          "internalType": "uint256",
          "name": "tokenId",
          "type": "uint256"
        }
      ],
      "name": "approve",
      "outputs": [],
      "stateMutability": "nonpayable",
      "type": "function"
    },
    {
      "inputs": [
        {
          "internalType": "address",
          "name": "owner",
          "type": "address"
        }
      ],
      "name": "balanceOf",
      "outputs": [
        {
          "internalType": "uint256",
          "name": "",
          "type": "uint256"
        }
      ],
      "stateMutability": "view",
      "type": "function"
    },
    {
      "inputs": [
        {
          "internalType": "uint256",
          "name": "tokenId",
          "type": "uint256"
        }
      ],
      "name": "claimToken",
      "outputs": [],
      "stateMutability": "nonpayable",
      "type": "function"
    },
    {
      "inputs": [
        {
          "internalType": "uint256",
          "name": "tokenId",
          "type": "uint256"
        }
      ],
      "name": "getApproved",
      "outputs": [
        {
          "internalType": "address",
          "name": "",
          "type": "address"
        }
      ],
      "stateMutability": "view",
      "type": "function"
    },
    {
      "inputs": [
        {
          "internalType": "uint256",
          "name": "tokenId",
          "type": "uint256"
        }
      ],
      "name": "getPlantDetails",
      "outputs": [
        {
          "components": [
            {
              "internalType": "string",
              "name": "speciesName",
              "type": "string"
            },
            {
              "internalType": "string",
              "name": "region",
              "type": "string"
            },
            {
              "internalType": "string",
              "name": "photoURL",
              "type": "string"
            },
            {
              "internalType": "bool",
              "name": "claimed",
              "type": "bool"
            }
          ],
          "internalType": "struct NativePlantTokens.Plant",
          "name": "",
          "type": "tuple"
        }
      ],
      "stateMutability": "view",
      "type": "function"
    },
    {
      "inputs": [
        {
          "internalType": "address",
          "name": "user",
          "type": "address"
        },
        {
          "internalType": "uint256",
          "name": "start",
          "type": "uint256"
        },
        {
          "internalType": "uint256",
          "name": "limit",
          "type": "uint256"
        }
      ],
      "name": "getUserTokens",
      "outputs": [
        {
          "internalType": "uint256[]",
          "name": "",
          "type": "uint256[]"
        }
      ],
      "stateMutability": "view",
      "type": "function"
    },
    {
      "inputs": [
        {
          "internalType": "address",
          "name": "owner",
          "type": "address"
        },
        {
          "internalType": "address",
          "name": "operator",
          "type": "address"
        }
      ],
      "name": "isApprovedForAll",
      "outputs": [
        {
          "internalType": "bool",
          "name": "",
          "type": "bool"
        }
      ],
      "stateMutability": "view",
      "type": "function"
    },
    {
      "inputs": [],
      "name": "name",
      "outputs": [
        {
          "internalType": "string",
          "name": "",
          "type": "string"
        }
      ],
      "stateMutability": "view",
      "type": "function"
    },
    {
      "inputs": [],
      "name": "owner",
      "outputs": [
        {
          "internalType": "address",
          "name": "",
          "type": "address"
        }
      ],
      "stateMutability": "view",
      "type": "function"
    },
    {
      "inputs": [
        {
          "internalType": "uint256",
          "name": "tokenId",
          "type": "uint256"
        }
      ],
      "name": "ownerOf",
      "outputs": [
        {
          "internalType": "address",
          "name": "",
          "type": "address"
        }
      ],
      "stateMutability": "view",
      "type": "function"
    },
    {
      "inputs": [
        {
          "internalType": "uint256",
          "name": "",
          "type": "uint256"
        }
      ],
      "name": "plants",
      "outputs": [
        {
          "internalType": "string",
          "name": "speciesName",
          "type": "string"
        },
        {
          "internalType": "string",
          "name": "region",
          "type": "string"
        },
        {
          "internalType": "string",
          "name": "photoURL",
          "type": "string"
        },
        {
          "internalType": "bool",
          "name": "claimed",
          "type": "bool"
        }
      ],
      "stateMutability": "view",
      "type": "function"
    },
    {
      "inputs": [
        {
          "internalType": "uint256",
          "name": "submissionId",
          "type": "uint256"
        }
      ],
      "name": "registerPlant",
      "outputs": [],
      "stateMutability": "nonpayable",
      "type": "function"
    },
    {
      "inputs": [],
      "name": "renounceOwnership",
      "outputs": [],
      "stateMutability": "nonpayable",
      "type": "function"
    },
    {
      "inputs": [
        {
          "internalType": "address",
          "name": "from",
          "type": "address"
        },
        {
          "internalType": "address",
          "name": "to",
          "type": "address"
        },
        {
          "internalType": "uint256",
          "name": "tokenId",
          "type": "uint256"
        }
      ],
      "name": "safeTransferFrom",
      "outputs": [],
      "stateMutability": "nonpayable",
      "type": "function"
    },
    {
      "inputs": [
        {
          "internalType": "address",
          "name": "from",
          "type": "address"
        },
        {
          "internalType": "address",
          "name": "to",
          "type": "address"
        },
        {
          "internalType": "uint256",
          "name": "tokenId",
          "type": "uint256"
        },
        {
          "internalType": "bytes",
          "name": "data",
          "type": "bytes"
        }
      ],
      "name": "safeTransferFrom",
      "outputs": [],
      "stateMutability": "nonpayable",
      "type": "function"
    },
    {
      "inputs": [
        {
          "internalType": "address",
          "name": "operator",
          "type": "address"
        },
        {
          "internalType": "bool",
          "name": "approved",
          "type": "bool"
        }
      ],
      "name": "setApprovalForAll",
      "outputs": [],
      "stateMutability": "nonpayable",
      "type": "function"
    },
    {
      "inputs": [
        {
          "internalType": "string",
          "name": "speciesName",
          "type": "string"
        },
        {
          "internalType": "string",
          "name": "region",
          "type": "string"
        },
        {
          "internalType": "string",
          "name": "photoURL",
          "type": "string"
        }
      ],
      "name": "submitPlant",
      "outputs": [],
      "stateMutability": "nonpayable",
      "type": "function"
    },
    {
      "inputs": [],
      "name": "submittedPlantCounter",
      "outputs": [
        {
          "internalType": "uint256",
          "name": "",
          "type": "uint256"
        }
      ],
      "stateMutability": "view",
      "type": "function"
    },
    {
      "inputs": [
        {
          "internalType": "uint256",
          "name": "",
          "type": "uint256"
        }
      ],
      "name": "submittedPlants",
      "outputs": [
        {
          "internalType": "address",
          "name": "user",
          "type": "address"
        },
        {
          "internalType": "string",
          "name": "speciesName",
          "type": "string"
        },
        {
          "internalType": "string",
          "name": "region",
          "type": "string"
        },
        {
          "internalType": "string",
          "name": "photoURL",
          "type": "string"
        }
      ],
      "stateMutability": "view",
      "type": "function"
    },
    {
      "inputs": [
        {
          "internalType": "bytes4",
          "name": "interfaceId",
          "type": "bytes4"
        }
      ],
      "name": "supportsInterface",
      "outputs": [
        {
          "internalType": "bool",
          "name": "",
          "type": "bool"
        }
      ],
      "stateMutability": "view",
      "type": "function"
    },
    {
      "inputs": [],
      "name": "symbol",
      "outputs": [
        {
          "internalType": "string",
          "name": "",
          "type": "string"
        }
      ],
      "stateMutability": "view",
      "type": "function"
    },
    {
      "inputs": [],
      "name": "tokenCounter",
      "outputs": [
        {
          "internalType": "uint256",
          "name": "",
          "type": "uint256"
        }
      ],
      "stateMutability": "view",
      "type": "function"
    },
    {
      "inputs": [
        {
          "internalType": "uint256",
          "name": "tokenId",
          "type": "uint256"
        }
      ],
      "name": "tokenURI",
      "outputs": [
        {
          "internalType": "string",
          "name": "",
          "type": "string"
        }
      ],
      "stateMutability": "view",
      "type": "function"
    },
    {
      "inputs": [
        {
          "internalType": "address",
          "name": "from",
          "type": "address"
        },
        {
          "internalType": "address",
          "name": "to",
          "type": "address"
        },
        {
          "internalType": "uint256",
          "name": "tokenId",
          "type": "uint256"
        }
      ],
      "name": "transferFrom",
      "outputs": [],
      "stateMutability": "nonpayable",
      "type": "function"
    },
    {
      "inputs": [
        {
          "internalType": "address",
          "name": "newOwner",
          "type": "address"
        }
      ],
      "name": "transferOwnership",
      "outputs": [],
      "stateMutability": "nonpayable",
      "type": "function"
    }
  ],
  "transactionHash": "0xaa0e6b89d7828019f4469e1e399a95f6dcc0bdecbb783b2d90675bd277886086",
  "args": [],
  "numDeployments": 1,
  "solcInputHash": "9e0322164be4d58f0e88bc36de8fe3eb",
  "bytecode": "0x60806040523480156200001157600080fd5b50336040518060400160405280601081526020016f2730ba34bb32a83630b73a2a37b5b2b760811b8152506040518060400160405280600381526020016213941560ea1b8152508160009081620000699190620001bd565b506001620000788282620001bd565b5050506001600160a01b038116620000aa57604051631e4fbdf760e01b81526000600482015260240160405180910390fd5b620000b581620000c6565b5060006007819055600c5562000289565b600680546001600160a01b038381166001600160a01b0319831681179093556040519116919082907f8be0079c531659141344cd1fd0a4f28419497f9722a3daafe3b4186f6b6457e090600090a35050565b634e487b7160e01b600052604160045260246000fd5b600181811c908216806200014357607f821691505b6020821081036200016457634e487b7160e01b600052602260045260246000fd5b50919050565b601f821115620001b857600081815260208120601f850160051c81016020861015620001935750805b601f850160051c820191505b81811015620001b4578281556001016200019f565b5050505b505050565b81516001600160401b03811115620001d957620001d962000118565b620001f181620001ea84546200012e565b846200016a565b602080601f831160018114620002295760008415620002105750858301515b600019600386901b1c1916600185901b178555620001b4565b600085815260208120601f198616915b828110156200025a5788860151825594840194600190910190840162000239565b5085821015620002795787850151600019600388901b60f8161c191681555b5050505050600190811b01905550565b61249080620002996000396000f3fe608060405234801561001057600080fd5b50600436106101735760003560e01c80638da5cb5b116100de578063c87b56dd11610097578063dc7ecfd211610071578063dc7ecfd214610347578063e985e9c514610367578063eb15c1c21461037a578063f2fde38b1461038d57600080fd5b8063c87b56dd1461030b578063ce8f49931461031e578063d082e3811461033e57600080fd5b80638da5cb5b146102965780638dd2361c146102a757806395d89b41146102ca578063a22cb465146102d2578063a9e7c2e5146102e5578063b88d4fde146102f857600080fd5b806342842e0e1161013057806342842e0e1461021b5780634d616a321461022e5780636352211e1461024557806370a0823114610258578063715018a61461026b57806388f642961461027357600080fd5b806301ffc9a71461017857806306fdde03146101a0578063081812fc146101b5578063095ea7b3146101e05780632193e094146101f557806323b872dd14610208575b600080fd5b61018b610186366004611cf0565b6103a0565b60405190151581526020015b60405180910390f35b6101a86103f2565b6040516101979190611d5d565b6101c86101c3366004611d70565b610484565b6040516001600160a01b039091168152602001610197565b6101f36101ee366004611da5565b6104ad565b005b6101f3610203366004611e7b565b6104bc565b6101f3610216366004611f03565b610697565b6101f3610229366004611f03565b610722565b610237600c5481565b604051908152602001610197565b6101c8610253366004611d70565b610742565b610237610266366004611f3f565b61074d565b6101f3610795565b610286610281366004611d70565b6107a9565b6040516101979493929190611f5a565b6006546001600160a01b03166101c8565b6102ba6102b5366004611d70565b610974565b6040516101979493929190611faf565b6101a8610b37565b6101f36102e0366004611ffc565b610b46565b6101f36102f3366004611d70565b610b51565b6101f3610306366004612038565b610c72565b6101a8610319366004611d70565b610c89565b61033161032c366004611d70565b610cfe565b60405161019791906120b4565b61023760075481565b61035a610355366004612125565b610f10565b6040516101979190612158565b61018b61037536600461219c565b61106a565b6101f3610388366004611d70565b611098565b6101f361039b366004611f3f565b611463565b60006001600160e01b031982166380ac58cd60e01b14806103d157506001600160e01b03198216635b5e139f60e01b145b806103ec57506301ffc9a760e01b6001600160e01b03198316145b92915050565b606060008054610401906121cf565b80601f016020809104026020016040519081016040528092919081815260200182805461042d906121cf565b801561047a5780601f1061044f5761010080835404028352916020019161047a565b820191906000526020600020905b81548152906001019060200180831161045d57829003601f168201915b5050505050905090565b600061048f826114a1565b506000828152600460205260409020546001600160a01b03166103ec565b6104b88282336114da565b5050565b60008351116105125760405162461bcd60e51b815260206004820152601c60248201527f53706563696573206e616d652063616e6e6f7420626520656d7074790000000060448201526064015b60405180910390fd5b600082511161055c5760405162461bcd60e51b8152602060048201526016602482015275526567696f6e2063616e6e6f7420626520656d70747960501b6044820152606401610509565b60008151116105ad5760405162461bcd60e51b815260206004820152601960248201527f50686f746f2055524c2063616e6e6f7420626520656d707479000000000000006044820152606401610509565b600c54604080516080810182523381526020808201878152828401879052606083018690526000858152600b909252929020815181546001600160a01b0319166001600160a01b039091161781559151909190600182019061060f9082612257565b50604082015160028201906106249082612257565b50606082015160038201906106399082612257565b509050507f0c04d338aa45110d65f5c7806a42cb62e061cd137134ba40385c8c7be65180a98133868642604051610674959493929190612317565b60405180910390a1600c805490600061068c8361237c565b919050555050505050565b6001600160a01b0382166106c157604051633250574960e11b815260006004820152602401610509565b60006106ce8383336114e7565b9050836001600160a01b0316816001600160a01b03161461071c576040516364283d7b60e01b81526001600160a01b0380861660048301526024820184905282166044820152606401610509565b50505050565b61073d83838360405180602001604052806000815250610c72565b505050565b60006103ec826114a1565b60006001600160a01b038216610779576040516322718ad960e21b815260006004820152602401610509565b506001600160a01b031660009081526003602052604090205490565b61079d6115e0565b6107a7600061160d565b565b600b60205260009081526040902080546001820180546001600160a01b0390921692916107d5906121cf565b80601f0160208091040260200160405190810160405280929190818152602001828054610801906121cf565b801561084e5780601f106108235761010080835404028352916020019161084e565b820191906000526020600020905b81548152906001019060200180831161083157829003601f168201915b505050505090806002018054610863906121cf565b80601f016020809104026020016040519081016040528092919081815260200182805461088f906121cf565b80156108dc5780601f106108b1576101008083540402835291602001916108dc565b820191906000526020600020905b8154815290600101906020018083116108bf57829003601f168201915b5050505050908060030180546108f1906121cf565b80601f016020809104026020016040519081016040528092919081815260200182805461091d906121cf565b801561096a5780601f1061093f5761010080835404028352916020019161096a565b820191906000526020600020905b81548152906001019060200180831161094d57829003601f168201915b5050505050905084565b60096020526000908152604090208054819061098f906121cf565b80601f01602080910402602001604051908101604052809291908181526020018280546109bb906121cf565b8015610a085780601f106109dd57610100808354040283529160200191610a08565b820191906000526020600020905b8154815290600101906020018083116109eb57829003601f168201915b505050505090806001018054610a1d906121cf565b80601f0160208091040260200160405190810160405280929190818152602001828054610a49906121cf565b8015610a965780601f10610a6b57610100808354040283529160200191610a96565b820191906000526020600020905b815481529060010190602001808311610a7957829003601f168201915b505050505090806002018054610aab906121cf565b80601f0160208091040260200160405190810160405280929190818152602001828054610ad7906121cf565b8015610b245780601f10610af957610100808354040283529160200191610b24565b820191906000526020600020905b815481529060010190602001808311610b0757829003601f168201915b5050506003909301549192505060ff1684565b606060018054610401906121cf565b6104b833838361165f565b6000818152600a60205260409020546001600160a01b03163314610bb75760405162461bcd60e51b815260206004820152601860248201527f596f7520646f6e2774206f776e207468697320746f6b656e00000000000000006044820152606401610509565b60008181526009602052604090206003015460ff1615610c115760405162461bcd60e51b8152602060048201526015602482015274151bdad95b88185b1c9958591e4818db185a5b5959605a1b6044820152606401610509565b6000818152600960205260409020600301805460ff19166001179055610c3733826116fe565b604080518281523360208201527f8b224b108d8f9c6d554b41182503c3f8b79dfcf17233a9366d50c386c28af850910160405180910390a150565b610c7d848484610697565b61071c84848484611718565b6060610c94826114a1565b506000610cac60408051602081019091526000815290565b90506000815111610ccc5760405180602001604052806000815250610cf7565b80610cd68461183a565b604051602001610ce7929190612395565b6040516020818303038152906040525b9392505050565b610d2b60405180608001604052806060815260200160608152602001606081526020016000151581525090565b60008281526009602052604090819020815160808101909252805482908290610d53906121cf565b80601f0160208091040260200160405190810160405280929190818152602001828054610d7f906121cf565b8015610dcc5780601f10610da157610100808354040283529160200191610dcc565b820191906000526020600020905b815481529060010190602001808311610daf57829003601f168201915b50505050508152602001600182018054610de5906121cf565b80601f0160208091040260200160405190810160405280929190818152602001828054610e11906121cf565b8015610e5e5780601f10610e3357610100808354040283529160200191610e5e565b820191906000526020600020905b815481529060010190602001808311610e4157829003601f168201915b50505050508152602001600282018054610e77906121cf565b80601f0160208091040260200160405190810160405280929190818152602001828054610ea3906121cf565b8015610ef05780601f10610ec557610100808354040283529160200191610ef0565b820191906000526020600020905b815481529060010190602001808311610ed357829003601f168201915b50505091835250506003919091015460ff16151560209091015292915050565b6001600160a01b038316600090815260086020526040812060609190610f35906118cd565b9050808410610f865760405162461bcd60e51b815260206004820152601960248201527f537461727420696e646578206f7574206f6620626f756e6473000000000000006044820152606401610509565b600081610f9385876123c4565b11610fa757610fa284866123c4565b610fa9565b815b90506000610fb786836123d7565b67ffffffffffffffff811115610fcf57610fcf611dcf565b604051908082528060200260200182016040528015610ff8578160200160208202803683370190505b509050855b8281101561105f576001600160a01b038816600090815260086020526040902061102790826118d7565b8261103289846123d7565b81518110611042576110426123ea565b6020908102919091010152806110578161237c565b915050610ffd565b509695505050505050565b6001600160a01b03918216600090815260056020908152604080832093909416825291909152205460ff1690565b6110a06115e0565b6000818152600b6020908152604080832081516080810190925280546001600160a01b0316825260018101805492939192918401916110de906121cf565b80601f016020809104026020016040519081016040528092919081815260200182805461110a906121cf565b80156111575780601f1061112c57610100808354040283529160200191611157565b820191906000526020600020905b81548152906001019060200180831161113a57829003601f168201915b50505050508152602001600282018054611170906121cf565b80601f016020809104026020016040519081016040528092919081815260200182805461119c906121cf565b80156111e95780601f106111be576101008083540402835291602001916111e9565b820191906000526020600020905b8154815290600101906020018083116111cc57829003601f168201915b50505050508152602001600382018054611202906121cf565b80601f016020809104026020016040519081016040528092919081815260200182805461122e906121cf565b801561127b5780601f106112505761010080835404028352916020019161127b565b820191906000526020600020905b81548152906001019060200180831161125e57829003601f168201915b5050509190925250508151919250506001600160a01b03166112d75760405162461bcd60e51b8152602060048201526015602482015274125b9d985b1a59081cdd589b5a5cdcda5bdb881251605a1b6044820152606401610509565b6007546040805160808101825260208085015182528483015181830152606080860151838501526000908301819052848152600990915291909120815181906113209082612257565b50602082015160018201906113359082612257565b506040820151600282019061134a9082612257565b50606091909101516003909101805460ff191691151591909117905581516001600160a01b0316600090815260086020526040902061138990826118e3565b5081516000828152600a602090815260409182902080546001600160a01b0319166001600160a01b03909416939093179092558351918401518185015191517f46df3b8f49b03f7579c46b4322917cd442e3e59f4eea01535ba473de59605ab4936113f993869391924290612317565b60405180910390a1600780549060006114118361237c565b90915550506000838152600b6020526040812080546001600160a01b0319168155906114406001830182611c8c565b61144e600283016000611c8c565b61145c600383016000611c8c565b5050505050565b61146b6115e0565b6001600160a01b03811661149557604051631e4fbdf760e01b815260006004820152602401610509565b61149e8161160d565b50565b6000818152600260205260408120546001600160a01b0316806103ec57604051637e27328960e01b815260048101849052602401610509565b61073d83838360016118ef565b6000828152600260205260408120546001600160a01b0390811690831615611514576115148184866119f5565b6001600160a01b03811615611552576115316000856000806118ef565b6001600160a01b038116600090815260036020526040902080546000190190555b6001600160a01b03851615611581576001600160a01b0385166000908152600360205260409020805460010190555b60008481526002602052604080822080546001600160a01b0319166001600160a01b0389811691821790925591518793918516917fddf252ad1be2c89b69c2b068fc378daa952ba7f163c4a11628f55a4df523b3ef91a4949350505050565b6006546001600160a01b031633146107a75760405163118cdaa760e01b8152336004820152602401610509565b600680546001600160a01b038381166001600160a01b0319831681179093556040519116919082907f8be0079c531659141344cd1fd0a4f28419497f9722a3daafe3b4186f6b6457e090600090a35050565b6001600160a01b03821661169157604051630b61174360e31b81526001600160a01b0383166004820152602401610509565b6001600160a01b03838116600081815260056020908152604080832094871680845294825291829020805460ff191686151590811790915591519182527f17307eab39ab6107e8899845ad3d59bd9653f200f220920489ca2b5937696c31910160405180910390a3505050565b6104b8828260405180602001604052806000815250611a59565b6001600160a01b0383163b1561071c57604051630a85bd0160e11b81526001600160a01b0384169063150b7a029061175a903390889087908790600401612400565b6020604051808303816000875af1925050508015611795575060408051601f3d908101601f191682019092526117929181019061243d565b60015b6117fe573d8080156117c3576040519150601f19603f3d011682016040523d82523d6000602084013e6117c8565b606091505b5080516000036117f657604051633250574960e11b81526001600160a01b0385166004820152602401610509565b805181602001fd5b6001600160e01b03198116630a85bd0160e11b1461145c57604051633250574960e11b81526001600160a01b0385166004820152602401610509565b6060600061184783611a70565b600101905060008167ffffffffffffffff81111561186757611867611dcf565b6040519080825280601f01601f191660200182016040528015611891576020820181803683370190505b5090508181016020015b600019016f181899199a1a9b1b9c1cb0b131b232b360811b600a86061a8153600a850494508461189b57509392505050565b60006103ec825490565b6000610cf78383611b48565b6000610cf78383611b72565b808061190357506001600160a01b03821615155b156119c5576000611913846114a1565b90506001600160a01b0383161580159061193f5750826001600160a01b0316816001600160a01b031614155b80156119525750611950818461106a565b155b1561197b5760405163a9fbf51f60e01b81526001600160a01b0384166004820152602401610509565b81156119c35783856001600160a01b0316826001600160a01b03167f8c5be1e5ebec7d5bd14f71427d1e84f3dd0314c0f7b2291e5b200ac8c7c3b92560405160405180910390a45b505b5050600090815260046020526040902080546001600160a01b0319166001600160a01b0392909216919091179055565b611a00838383611bc1565b61073d576001600160a01b038316611a2e57604051637e27328960e01b815260048101829052602401610509565b60405163177e802f60e01b81526001600160a01b038316600482015260248101829052604401610509565b611a638383611c27565b61073d6000848484611718565b60008072184f03e93ff9f4daa797ed6e38ed64bf6a1f0160401b8310611aaf5772184f03e93ff9f4daa797ed6e38ed64bf6a1f0160401b830492506040015b6d04ee2d6d415b85acef81000000008310611adb576d04ee2d6d415b85acef8100000000830492506020015b662386f26fc100008310611af957662386f26fc10000830492506010015b6305f5e1008310611b11576305f5e100830492506008015b6127108310611b2557612710830492506004015b60648310611b37576064830492506002015b600a83106103ec5760010192915050565b6000826000018281548110611b5f57611b5f6123ea565b9060005260206000200154905092915050565b6000818152600183016020526040812054611bb9575081546001818101845560008481526020808220909301849055845484825282860190935260409020919091556103ec565b5060006103ec565b60006001600160a01b03831615801590611c1f5750826001600160a01b0316846001600160a01b03161480611bfb5750611bfb848461106a565b80611c1f57506000828152600460205260409020546001600160a01b038481169116145b949350505050565b6001600160a01b038216611c5157604051633250574960e11b815260006004820152602401610509565b6000611c5f838360006114e7565b90506001600160a01b0381161561073d576040516339e3563760e11b815260006004820152602401610509565b508054611c98906121cf565b6000825580601f10611ca8575050565b601f01602090049060005260206000209081019061149e91905b80821115611cd65760008155600101611cc2565b5090565b6001600160e01b03198116811461149e57600080fd5b600060208284031215611d0257600080fd5b8135610cf781611cda565b60005b83811015611d28578181015183820152602001611d10565b50506000910152565b60008151808452611d49816020860160208601611d0d565b601f01601f19169290920160200192915050565b602081526000610cf76020830184611d31565b600060208284031215611d8257600080fd5b5035919050565b80356001600160a01b0381168114611da057600080fd5b919050565b60008060408385031215611db857600080fd5b611dc183611d89565b946020939093013593505050565b634e487b7160e01b600052604160045260246000fd5b600067ffffffffffffffff80841115611e0057611e00611dcf565b604051601f8501601f19908116603f01168101908282118183101715611e2857611e28611dcf565b81604052809350858152868686011115611e4157600080fd5b858560208301376000602087830101525050509392505050565b600082601f830112611e6c57600080fd5b610cf783833560208501611de5565b600080600060608486031215611e9057600080fd5b833567ffffffffffffffff80821115611ea857600080fd5b611eb487838801611e5b565b94506020860135915080821115611eca57600080fd5b611ed687838801611e5b565b93506040860135915080821115611eec57600080fd5b50611ef986828701611e5b565b9150509250925092565b600080600060608486031215611f1857600080fd5b611f2184611d89565b9250611f2f60208501611d89565b9150604084013590509250925092565b600060208284031215611f5157600080fd5b610cf782611d89565b6001600160a01b0385168152608060208201819052600090611f7e90830186611d31565b8281036040840152611f908186611d31565b90508281036060840152611fa48185611d31565b979650505050505050565b608081526000611fc26080830187611d31565b8281036020840152611fd48187611d31565b90508281036040840152611fe88186611d31565b915050821515606083015295945050505050565b6000806040838503121561200f57600080fd5b61201883611d89565b91506020830135801515811461202d57600080fd5b809150509250929050565b6000806000806080858703121561204e57600080fd5b61205785611d89565b935061206560208601611d89565b925060408501359150606085013567ffffffffffffffff81111561208857600080fd5b8501601f8101871361209957600080fd5b6120a887823560208401611de5565b91505092959194509250565b6020815260008251608060208401526120d060a0840182611d31565b90506020840151601f19808584030160408601526120ee8383611d31565b925060408601519150808584030160608601525061210c8282611d31565b9150506060840151151560808401528091505092915050565b60008060006060848603121561213a57600080fd5b61214384611d89565b95602085013595506040909401359392505050565b6020808252825182820181905260009190848201906040850190845b8181101561219057835183529284019291840191600101612174565b50909695505050505050565b600080604083850312156121af57600080fd5b6121b883611d89565b91506121c660208401611d89565b90509250929050565b600181811c908216806121e357607f821691505b60208210810361220357634e487b7160e01b600052602260045260246000fd5b50919050565b601f82111561073d57600081815260208120601f850160051c810160208610156122305750805b601f850160051c820191505b8181101561224f5782815560010161223c565b505050505050565b815167ffffffffffffffff81111561227157612271611dcf565b6122858161227f84546121cf565b84612209565b602080601f8311600181146122ba57600084156122a25750858301515b600019600386901b1c1916600185901b17855561224f565b600085815260208120601f198616915b828110156122e9578886015182559484019460019091019084016122ca565b50858210156123075787850151600019600388901b60f8161c191681555b5050505050600190811b01905550565b8581526001600160a01b038516602082015260a06040820181905260009061234190830186611d31565b82810360608401526123538186611d31565b9150508260808301529695505050505050565b634e487b7160e01b600052601160045260246000fd5b60006001820161238e5761238e612366565b5060010190565b600083516123a7818460208801611d0d565b8351908301906123bb818360208801611d0d565b01949350505050565b808201808211156103ec576103ec612366565b818103818111156103ec576103ec612366565b634e487b7160e01b600052603260045260246000fd5b6001600160a01b038581168252841660208201526040810183905260806060820181905260009061243390830184611d31565b9695505050505050565b60006020828403121561244f57600080fd5b8151610cf781611cda56fea26469706673582212204b3ade80b544fa267b109237132a76c08862c60318a12bfe396a33a3d92c1d3964736f6c63430008140033",
  "devdoc": {
    "errors": {
      "ERC721IncorrectOwner(address,uint256,address)": [
        {
          "details": "Indicates an error related to the ownership over a particular token. Used in transfers.",
          "params": {
            "owner": "Address of the current owner of a token.",
            "sender": "Address whose tokens are being transferred.",
            "tokenId": "Identifier number of a token."
          }
        }
      ],
      "ERC721InsufficientApproval(address,uint256)": [
        {
          "details": "Indicates a failure with the `operator`s approval. Used in transfers.",
          "params": {
            "operator": "Address that may be allowed to operate on tokens without being their owner.",
            "tokenId": "Identifier number of a token."
          }
        }
      ],
      "ERC721InvalidApprover(address)": [
        {
          "details": "Indicates a failure with the `approver` of a token to be approved. Used in approvals.",
          "params": {
            "approver": "Address initiating an approval operation."
          }
        }
      ],
      "ERC721InvalidOperator(address)": [
        {
          "details": "Indicates a failure with the `operator` to be approved. Used in approvals.",
          "params": {
            "operator": "Address that may be allowed to operate on tokens without being their owner."
          }
        }
      ],
      "ERC721InvalidOwner(address)": [
        {
          "details": "Indicates that an address can't be an owner. For example, `address(0)` is a forbidden owner in EIP-20. Used in balance queries.",
          "params": {
            "owner": "Address of the current owner of a token."
          }
        }
      ],
      "ERC721InvalidReceiver(address)": [
        {
          "details": "Indicates a failure with the token `receiver`. Used in transfers.",
          "params": {
            "receiver": "Address to which tokens are being transferred."
          }
        }
      ],
      "ERC721InvalidSender(address)": [
        {
          "details": "Indicates a failure with the token `sender`. Used in transfers.",
          "params": {
            "sender": "Address whose tokens are being transferred."
          }
        }
      ],
      "ERC721NonexistentToken(uint256)": [
        {
          "details": "Indicates a `tokenId` whose `owner` is the zero address.",
          "params": {
            "tokenId": "Identifier number of a token."
          }
        }
      ],
      "OwnableInvalidOwner(address)": [
        {
          "details": "The owner is not a valid owner account. (eg. `address(0)`)"
        }
      ],
      "OwnableUnauthorizedAccount(address)": [
        {
          "details": "The caller account is not authorized to perform an operation."
        }
      ]
    },
    "events": {
      "Approval(address,address,uint256)": {
        "details": "Emitted when `owner` enables `approved` to manage the `tokenId` token."
      },
      "ApprovalForAll(address,address,bool)": {
        "details": "Emitted when `owner` enables or disables (`approved`) `operator` to manage all of its assets."
      },
      "Transfer(address,address,uint256)": {
        "details": "Emitted when `tokenId` token is transferred from `from` to `to`."
      }
    },
    "kind": "dev",
    "methods": {
      "approve(address,uint256)": {
        "details": "See {IERC721-approve}."
      },
      "balanceOf(address)": {
        "details": "See {IERC721-balanceOf}."
      },
      "getApproved(uint256)": {
        "details": "See {IERC721-getApproved}."
      },
      "isApprovedForAll(address,address)": {
        "details": "See {IERC721-isApprovedForAll}."
      },
      "name()": {
        "details": "See {IERC721Metadata-name}."
      },
      "owner()": {
        "details": "Returns the address of the current owner."
      },
      "ownerOf(uint256)": {
        "details": "See {IERC721-ownerOf}."
      },
      "renounceOwnership()": {
        "details": "Leaves the contract without owner. It will not be possible to call `onlyOwner` functions. Can only be called by the current owner. NOTE: Renouncing ownership will leave the contract without an owner, thereby disabling any functionality that is only available to the owner."
      },
      "safeTransferFrom(address,address,uint256)": {
        "details": "See {IERC721-safeTransferFrom}."
      },
      "safeTransferFrom(address,address,uint256,bytes)": {
        "details": "See {IERC721-safeTransferFrom}."
      },
      "setApprovalForAll(address,bool)": {
        "details": "See {IERC721-setApprovalForAll}."
      },
      "supportsInterface(bytes4)": {
        "details": "See {IERC165-supportsInterface}."
      },
      "symbol()": {
        "details": "See {IERC721Metadata-symbol}."
      },
      "tokenURI(uint256)": {
        "details": "See {IERC721Metadata-tokenURI}."
      },
      "transferFrom(address,address,uint256)": {
        "details": "See {IERC721-transferFrom}."
      },
      "transferOwnership(address)": {
        "details": "Transfers ownership of the contract to a new account (`newOwner`). Can only be called by the current owner."
      }
    },
    "version": 1
  },
  "userdoc": {
    "kind": "user",
    "methods": {},
    "version": 1
  },
  "storageLayout": {
    "storage": [
      {
        "astId": 317,
        "contract": "contracts/NativePlantTokens.sol:NativePlantTokens",
        "label": "_name",
        "offset": 0,
        "slot": "0",
        "type": "t_string_storage"
      },
      {
        "astId": 319,
        "contract": "contracts/NativePlantTokens.sol:NativePlantTokens",
        "label": "_symbol",
        "offset": 0,
        "slot": "1",
        "type": "t_string_storage"
      },
      {
        "astId": 323,
        "contract": "contracts/NativePlantTokens.sol:NativePlantTokens",
        "label": "_owners",
        "offset": 0,
        "slot": "2",
        "type": "t_mapping(t_uint256,t_address)"
      },
      {
        "astId": 327,
        "contract": "contracts/NativePlantTokens.sol:NativePlantTokens",
        "label": "_balances",
        "offset": 0,
        "slot": "3",
        "type": "t_mapping(t_address,t_uint256)"
      },
      {
        "astId": 331,
        "contract": "contracts/NativePlantTokens.sol:NativePlantTokens",
        "label": "_tokenApprovals",
        "offset": 0,
        "slot": "4",
        "type": "t_mapping(t_uint256,t_address)"
      },
      {
        "astId": 337,
        "contract": "contracts/NativePlantTokens.sol:NativePlantTokens",
        "label": "_operatorApprovals",
        "offset": 0,
        "slot": "5",
        "type": "t_mapping(t_address,t_mapping(t_address,t_bool))"
      },
      {
        "astId": 8,
        "contract": "contracts/NativePlantTokens.sol:NativePlantTokens",
        "label": "_owner",
        "offset": 0,
        "slot": "6",
        "type": "t_address"
      },
      {
        "astId": 3564,
        "contract": "contracts/NativePlantTokens.sol:NativePlantTokens",
        "label": "tokenCounter",
        "offset": 0,
        "slot": "7",
        "type": "t_uint256"
      },
      {
        "astId": 3587,
        "contract": "contracts/NativePlantTokens.sol:NativePlantTokens",
        "label": "userTokens",
        "offset": 0,
        "slot": "8",
        "type": "t_mapping(t_address,t_struct(UintSet)3419_storage)"
      },
      {
        "astId": 3592,
        "contract": "contracts/NativePlantTokens.sol:NativePlantTokens",
        "label": "plants",
        "offset": 0,
        "slot": "9",
        "type": "t_mapping(t_uint256,t_struct(Plant)3573_storage)"
      },
      {
        "astId": 3596,
        "contract": "contracts/NativePlantTokens.sol:NativePlantTokens",
        "label": "tokenOwners",
        "offset": 0,
        "slot": "10",
        "type": "t_mapping(t_uint256,t_address)"
      },
      {
        "astId": 3601,
        "contract": "contracts/NativePlantTokens.sol:NativePlantTokens",
        "label": "submittedPlants",
        "offset": 0,
        "slot": "11",
        "type": "t_mapping(t_uint256,t_struct(SubmittedPlant)3582_storage)"
      },
      {
        "astId": 3603,
        "contract": "contracts/NativePlantTokens.sol:NativePlantTokens",
        "label": "submittedPlantCounter",
        "offset": 0,
        "slot": "12",
        "type": "t_uint256"
      }
    ],
    "types": {
      "t_address": {
        "encoding": "inplace",
        "label": "address",
        "numberOfBytes": "20"
      },
      "t_array(t_bytes32)dyn_storage": {
        "base": "t_bytes32",
        "encoding": "dynamic_array",
        "label": "bytes32[]",
        "numberOfBytes": "32"
      },
      "t_bool": {
        "encoding": "inplace",
        "label": "bool",
        "numberOfBytes": "1"
      },
      "t_bytes32": {
        "encoding": "inplace",
        "label": "bytes32",
        "numberOfBytes": "32"
      },
      "t_mapping(t_address,t_bool)": {
        "encoding": "mapping",
        "key": "t_address",
        "label": "mapping(address => bool)",
        "numberOfBytes": "32",
        "value": "t_bool"
      },
      "t_mapping(t_address,t_mapping(t_address,t_bool))": {
        "encoding": "mapping",
        "key": "t_address",
        "label": "mapping(address => mapping(address => bool))",
        "numberOfBytes": "32",
        "value": "t_mapping(t_address,t_bool)"
      },
      "t_mapping(t_address,t_struct(UintSet)3419_storage)": {
        "encoding": "mapping",
        "key": "t_address",
        "label": "mapping(address => struct EnumerableSet.UintSet)",
        "numberOfBytes": "32",
        "value": "t_struct(UintSet)3419_storage"
      },
      "t_mapping(t_address,t_uint256)": {
        "encoding": "mapping",
        "key": "t_address",
        "label": "mapping(address => uint256)",
        "numberOfBytes": "32",
        "value": "t_uint256"
      },
      "t_mapping(t_bytes32,t_uint256)": {
        "encoding": "mapping",
        "key": "t_bytes32",
        "label": "mapping(bytes32 => uint256)",
        "numberOfBytes": "32",
        "value": "t_uint256"
      },
      "t_mapping(t_uint256,t_address)": {
        "encoding": "mapping",
        "key": "t_uint256",
        "label": "mapping(uint256 => address)",
        "numberOfBytes": "32",
        "value": "t_address"
      },
      "t_mapping(t_uint256,t_struct(Plant)3573_storage)": {
        "encoding": "mapping",
        "key": "t_uint256",
        "label": "mapping(uint256 => struct NativePlantTokens.Plant)",
        "numberOfBytes": "32",
        "value": "t_struct(Plant)3573_storage"
      },
      "t_mapping(t_uint256,t_struct(SubmittedPlant)3582_storage)": {
        "encoding": "mapping",
        "key": "t_uint256",
        "label": "mapping(uint256 => struct NativePlantTokens.SubmittedPlant)",
        "numberOfBytes": "32",
        "value": "t_struct(SubmittedPlant)3582_storage"
      },
      "t_string_storage": {
        "encoding": "bytes",
        "label": "string",
        "numberOfBytes": "32"
      },
      "t_struct(Plant)3573_storage": {
        "encoding": "inplace",
        "label": "struct NativePlantTokens.Plant",
        "members": [
          {
            "astId": 3566,
            "contract": "contracts/NativePlantTokens.sol:NativePlantTokens",
            "label": "speciesName",
            "offset": 0,
            "slot": "0",
            "type": "t_string_storage"
          },
          {
            "astId": 3568,
            "contract": "contracts/NativePlantTokens.sol:NativePlantTokens",
            "label": "region",
            "offset": 0,
            "slot": "1",
            "type": "t_string_storage"
          },
          {
            "astId": 3570,
            "contract": "contracts/NativePlantTokens.sol:NativePlantTokens",
            "label": "photoURL",
            "offset": 0,
            "slot": "2",
            "type": "t_string_storage"
          },
          {
            "astId": 3572,
            "contract": "contracts/NativePlantTokens.sol:NativePlantTokens",
            "label": "claimed",
            "offset": 0,
            "slot": "3",
            "type": "t_bool"
          }
        ],
        "numberOfBytes": "128"
      },
      "t_struct(Set)2947_storage": {
        "encoding": "inplace",
        "label": "struct EnumerableSet.Set",
        "members": [
          {
            "astId": 2942,
            "contract": "contracts/NativePlantTokens.sol:NativePlantTokens",
            "label": "_values",
            "offset": 0,
            "slot": "0",
            "type": "t_array(t_bytes32)dyn_storage"
          },
          {
            "astId": 2946,
            "contract": "contracts/NativePlantTokens.sol:NativePlantTokens",
            "label": "_positions",
            "offset": 0,
            "slot": "1",
            "type": "t_mapping(t_bytes32,t_uint256)"
          }
        ],
        "numberOfBytes": "64"
      },
      "t_struct(SubmittedPlant)3582_storage": {
        "encoding": "inplace",
        "label": "struct NativePlantTokens.SubmittedPlant",
        "members": [
          {
            "astId": 3575,
            "contract": "contracts/NativePlantTokens.sol:NativePlantTokens",
            "label": "user",
            "offset": 0,
            "slot": "0",
            "type": "t_address"
          },
          {
            "astId": 3577,
            "contract": "contracts/NativePlantTokens.sol:NativePlantTokens",
            "label": "speciesName",
            "offset": 0,
            "slot": "1",
            "type": "t_string_storage"
          },
          {
            "astId": 3579,
            "contract": "contracts/NativePlantTokens.sol:NativePlantTokens",
            "label": "region",
            "offset": 0,
            "slot": "2",
            "type": "t_string_storage"
          },
          {
            "astId": 3581,
            "contract": "contracts/NativePlantTokens.sol:NativePlantTokens",
            "label": "photoURL",
            "offset": 0,
            "slot": "3",
            "type": "t_string_storage"
          }
        ],
        "numberOfBytes": "128"
      },
      "t_struct(UintSet)3419_storage": {
        "encoding": "inplace",
        "label": "struct EnumerableSet.UintSet",
        "members": [
          {
            "astId": 3418,
            "contract": "contracts/NativePlantTokens.sol:NativePlantTokens",
            "label": "_inner",
            "offset": 0,
            "slot": "0",
            "type": "t_struct(Set)2947_storage"
          }
        ],
        "numberOfBytes": "64"
      },
      "t_uint256": {
        "encoding": "inplace",
        "label": "uint256",
        "numberOfBytes": "32"
      }
    }
  }
}